{
  "abi": [
    {
      "anonymous": false,
      "inputs": [
        {
          "indexed": true,
          "internalType": "address",
          "name": "previousOwner",
          "type": "address"
        },
        {
          "indexed": true,
          "internalType": "address",
          "name": "newOwner",
          "type": "address"
        }
      ],
      "name": "OwnershipTransferred",
      "type": "event"
    },
    {
      "anonymous": false,
      "inputs": [
        {
          "indexed": false,
          "internalType": "address",
          "name": "trader",
          "type": "address"
        },
        {
          "indexed": false,
          "internalType": "address",
          "name": "subject",
          "type": "address"
        },
        {
          "indexed": false,
          "internalType": "bool",
          "name": "isBuy",
          "type": "bool"
        },
        {
          "indexed": false,
          "internalType": "uint256",
          "name": "shareAmount",
          "type": "uint256"
        },
        {
          "indexed": false,
          "internalType": "uint256",
          "name": "ethAmount",
          "type": "uint256"
        },
        {
          "indexed": false,
          "internalType": "uint256",
          "name": "protocolEthAmount",
          "type": "uint256"
        },
        {
          "indexed": false,
          "internalType": "uint256",
          "name": "subjectEthAmount",
          "type": "uint256"
        },
        {
          "indexed": false,
          "internalType": "uint256",
          "name": "supply",
          "type": "uint256"
        }
      ],
      "name": "Trade",
      "type": "event"
    },
    {
      "inputs": [
        {
          "internalType": "address",
          "name": "sharesSubject",
          "type": "address"
        },
        {
          "internalType": "uint256",
          "name": "amount",
          "type": "uint256"
        }
      ],
      "name": "buyShares",
      "outputs": [],
      "stateMutability": "payable",
      "type": "function"
    },
    {
      "inputs": [
        {
          "internalType": "address",
          "name": "sharesSubject",
          "type": "address"
        },
        {
          "internalType": "uint256",
          "name": "amount",
          "type": "uint256"
        }
      ],
      "name": "getBuyPrice",
      "outputs": [
        {
          "internalType": "uint256",
          "name": "",
          "type": "uint256"
        }
      ],
      "stateMutability": "view",
      "type": "function"
    },
    {
      "inputs": [
        {
          "internalType": "address",
          "name": "sharesSubject",
          "type": "address"
        },
        {
          "internalType": "uint256",
          "name": "amount",
          "type": "uint256"
        }
      ],
      "name": "getBuyPriceAfterFee",
      "outputs": [
        {
          "internalType": "uint256",
          "name": "",
          "type": "uint256"
        }
      ],
      "stateMutability": "view",
      "type": "function"
    },
    {
      "inputs": [
        {
          "internalType": "uint256",
          "name": "supply",
          "type": "uint256"
        },
        {
          "internalType": "uint256",
          "name": "amount",
          "type": "uint256"
        }
      ],
      "name": "getPrice",
      "outputs": [
        {
          "internalType": "uint256",
          "name": "",
          "type": "uint256"
        }
      ],
      "stateMutability": "pure",
      "type": "function"
    },
    {
      "inputs": [
        {
          "internalType": "address",
          "name": "sharesSubject",
          "type": "address"
        },
        {
          "internalType": "uint256",
          "name": "amount",
          "type": "uint256"
        }
      ],
      "name": "getSellPrice",
      "outputs": [
        {
          "internalType": "uint256",
          "name": "",
          "type": "uint256"
        }
      ],
      "stateMutability": "view",
      "type": "function"
    },
    {
      "inputs": [
        {
          "internalType": "address",
          "name": "sharesSubject",
          "type": "address"
        },
        {
          "internalType": "uint256",
          "name": "amount",
          "type": "uint256"
        }
      ],
      "name": "getSellPriceAfterFee",
      "outputs": [
        {
          "internalType": "uint256",
          "name": "",
          "type": "uint256"
        }
      ],
      "stateMutability": "view",
      "type": "function"
    },
    {
      "inputs": [],
      "name": "owner",
      "outputs": [
        {
          "internalType": "address",
          "name": "",
          "type": "address"
        }
      ],
      "stateMutability": "view",
      "type": "function"
    },
    {
      "inputs": [],
      "name": "protocolFeeDestination",
      "outputs": [
        {
          "internalType": "address",
          "name": "",
          "type": "address"
        }
      ],
      "stateMutability": "view",
      "type": "function"
    },
    {
      "inputs": [],
      "name": "protocolFeePercent",
      "outputs": [
        {
          "internalType": "uint256",
          "name": "",
          "type": "uint256"
        }
      ],
      "stateMutability": "view",
      "type": "function"
    },
    {
      "inputs": [],
      "name": "renounceOwnership",
      "outputs": [],
      "stateMutability": "nonpayable",
      "type": "function"
    },
    {
      "inputs": [
        {
          "internalType": "address",
          "name": "sharesSubject",
          "type": "address"
        },
        {
          "internalType": "uint256",
          "name": "amount",
          "type": "uint256"
        }
      ],
      "name": "sellShares",
      "outputs": [],
      "stateMutability": "payable",
      "type": "function"
    },
    {
      "inputs": [
        {
          "internalType": "address",
          "name": "_feeDestination",
          "type": "address"
        }
      ],
      "name": "setFeeDestination",
      "outputs": [],
      "stateMutability": "nonpayable",
      "type": "function"
    },
    {
      "inputs": [
        {
          "internalType": "uint256",
          "name": "_feePercent",
          "type": "uint256"
        }
      ],
      "name": "setProtocolFeePercent",
      "outputs": [],
      "stateMutability": "nonpayable",
      "type": "function"
    },
    {
      "inputs": [
        {
          "internalType": "uint256",
          "name": "_feePercent",
          "type": "uint256"
        }
      ],
      "name": "setSubjectFeePercent",
      "outputs": [],
      "stateMutability": "nonpayable",
      "type": "function"
    },
    {
      "inputs": [
        {
          "internalType": "address",
          "name": "",
          "type": "address"
        },
        {
          "internalType": "address",
          "name": "",
          "type": "address"
        }
      ],
      "name": "sharesBalance",
      "outputs": [
        {
          "internalType": "uint256",
          "name": "",
          "type": "uint256"
        }
      ],
      "stateMutability": "view",
      "type": "function"
    },
    {
      "inputs": [
        {
          "internalType": "address",
          "name": "",
          "type": "address"
        }
      ],
      "name": "sharesSupply",
      "outputs": [
        {
          "internalType": "uint256",
          "name": "",
          "type": "uint256"
        }
      ],
      "stateMutability": "view",
      "type": "function"
    },
    {
      "inputs": [],
      "name": "subjectFeePercent",
      "outputs": [
        {
          "internalType": "uint256",
          "name": "",
          "type": "uint256"
        }
      ],
      "stateMutability": "view",
      "type": "function"
    },
    {
      "inputs": [
        {
          "internalType": "address",
          "name": "newOwner",
          "type": "address"
        }
      ],
      "name": "transferOwnership",
      "outputs": [],
      "stateMutability": "nonpayable",
      "type": "function"
    }
  ],
  "bytecode": {
    "object": "0x608060405234801561001057600080fd5b5061001a3361001f565b61006f565b600080546001600160a01b038381166001600160a01b0319831681178455604051919092169283917f8be0079c531659141344cd1fd0a4f28419497f9722a3daafe3b4186f6b6457e09190a35050565b610f728061007e6000396000f3fe6080604052600436106101095760003560e01c8063715018a611610095578063b51d053411610064578063b51d0534146102cf578063d6e6eb9f146102e2578063f2fde38b146102f8578063f9931be014610318578063fbe532341461034557600080fd5b8063715018a61461025c5780638da5cb5b146102715780639ae717811461028f578063a4983421146102af57600080fd5b80634635256e116100dc5780634635256e146101af5780634ce7957c146101cf5780635a8a764e146102075780635cf4ee91146102295780636945b1231461024957600080fd5b8063020235ff1461010e5780630f026f6d146101595780632267a89c1461017957806324dc441d14610199575b600080fd5b34801561011a57600080fd5b50610146610129366004610dd0565b600460209081526000928352604080842090915290825290205481565b6040519081526020015b60405180910390f35b34801561016557600080fd5b50610146610174366004610e03565b610365565b34801561018557600080fd5b50610146610194366004610e03565b6103df565b3480156101a557600080fd5b5061014660035481565b3480156101bb57600080fd5b506101466101ca366004610e03565b61044d565b3480156101db57600080fd5b506001546101ef906001600160a01b031681565b6040516001600160a01b039091168152602001610150565b34801561021357600080fd5b50610227610222366004610e2d565b610477565b005b34801561023557600080fd5b50610146610244366004610e46565b610484565b610227610257366004610e03565b61059b565b34801561026857600080fd5b506102276108af565b34801561027d57600080fd5b506000546001600160a01b03166101ef565b34801561029b57600080fd5b506101466102aa366004610e03565b6108c3565b3480156102bb57600080fd5b506102276102ca366004610e2d565b6108f1565b6102276102dd366004610e03565b6108fe565b3480156102ee57600080fd5b5061014660025481565b34801561030457600080fd5b50610227610313366004610e68565b610c67565b34801561032457600080fd5b50610146610333366004610e68565b60056020526000908152604090205481565b34801561035157600080fd5b50610227610360366004610e68565b610ce0565b600080610372848461044d565b90506000670de0b6b3a76400006002548361038d9190610e99565b6103979190610eb0565b90506000670de0b6b3a7640000600354846103b29190610e99565b6103bc9190610eb0565b9050806103c98385610ed2565b6103d39190610ed2565b93505050505b92915050565b6000806103ec84846108c3565b90506000670de0b6b3a7640000600254836104079190610e99565b6104119190610eb0565b90506000670de0b6b3a76400006003548461042c9190610e99565b6104369190610eb0565b9050806104438385610ee5565b6103d39190610ee5565b6001600160a01b0382166000908152600560205260408120546104709083610484565b9392505050565b61047f610d0a565b600355565b60008083156104df57600661049a600186610ee5565b6104a5906002610e99565b6104b0906001610ed2565b856104bc600182610ee5565b6104c69190610e99565b6104d09190610e99565b6104da9190610eb0565b6104e2565b60005b90506000841580156104f45750836001145b61056957600684610506600188610ee5565b6105109190610ed2565b61051b906002610e99565b610526906001610ed2565b6105308688610ed2565b8661053c60018a610ee5565b6105469190610ed2565b6105509190610e99565b61055a9190610e99565b6105649190610eb0565b61056c565b60005b9050600061057a8383610ee5565b9050613e8061059182670de0b6b3a7640000610e99565b6103d39190610eb0565b6001600160a01b038216600090815260056020526040902054801515806105ca57506001600160a01b03831633145b6106345760405162461bcd60e51b815260206004820152603060248201527f4f6e6c79207468652073686172657327207375626a6563742063616e2062757960448201526f2074686520666972737420736861726560801b60648201526084015b60405180910390fd5b60006106408284610484565b90506000670de0b6b3a76400006002548361065b9190610e99565b6106659190610eb0565b90506000670de0b6b3a7640000600354846106809190610e99565b61068a9190610eb0565b9050806106978385610ed2565b6106a19190610ed2565b3410156106e75760405162461bcd60e51b8152602060048201526014602482015273125b9cdd59999a58da595b9d081c185e5b595b9d60621b604482015260640161062b565b6001600160a01b0386166000908152600460209081526040808320338452909152902054610716908690610ed2565b6001600160a01b03871660009081526004602090815260408083203384529091529020556107448585610ed2565b6001600160a01b0387166000908152600560205260409020557f2c76e7a47fd53e2854856ac3f0a5f3ee40d15cfaa82266357ea9779c486ab9c33387600188878787610790848d610ed2565b6040516107a4989796959493929190610ef8565b60405180910390a16001546040516000916001600160a01b03169084908381818185875af1925050503d80600081146107f9576040519150601f19603f3d011682016040523d82523d6000602084013e6107fe565b606091505b505090506000876001600160a01b03168360405160006040518083038185875af1925050503d806000811461084f576040519150601f19603f3d011682016040523d82523d6000602084013e610854565b606091505b505090508180156108625750805b6108a55760405162461bcd60e51b8152602060048201526014602482015273556e61626c6520746f2073656e642066756e647360601b604482015260640161062b565b5050505050505050565b6108b7610d0a565b6108c16000610d64565b565b6001600160a01b038216600090815260056020526040812054610470906108eb908490610ee5565b83610484565b6108f9610d0a565b600255565b6001600160a01b0382166000908152600560205260409020548181116109665760405162461bcd60e51b815260206004820152601a60248201527f43616e6e6f742073656c6c20746865206c617374207368617265000000000000604482015260640161062b565b600061097b6109758484610ee5565b84610484565b90506000670de0b6b3a7640000600254836109969190610e99565b6109a09190610eb0565b90506000670de0b6b3a7640000600354846109bb9190610e99565b6109c59190610eb0565b6001600160a01b0387166000908152600460209081526040808320338452909152902054909150851115610a315760405162461bcd60e51b8152602060048201526013602482015272496e73756666696369656e742073686172657360681b604482015260640161062b565b6001600160a01b0386166000908152600460209081526040808320338452909152902054610a60908690610ee5565b6001600160a01b0387166000908152600460209081526040808320338452909152902055610a8e8585610ee5565b6001600160a01b0387166000908152600560205260408120919091557f2c76e7a47fd53e2854856ac3f0a5f3ee40d15cfaa82266357ea9779c486ab9c3903390889088878787610ade848d610ee5565b604051610af2989796959493929190610ef8565b60405180910390a160003382610b088587610ee5565b610b129190610ee5565b604051600081818185875af1925050503d8060008114610b4e576040519150601f19603f3d011682016040523d82523d6000602084013e610b53565b606091505b50506001546040519192506000916001600160a01b039091169085908381818185875af1925050503d8060008114610ba7576040519150601f19603f3d011682016040523d82523d6000602084013e610bac565b606091505b505090506000886001600160a01b03168460405160006040518083038185875af1925050503d8060008114610bfd576040519150601f19603f3d011682016040523d82523d6000602084013e610c02565b606091505b50509050828015610c105750815b8015610c195750805b610c5c5760405162461bcd60e51b8152602060048201526014602482015273556e61626c6520746f2073656e642066756e647360601b604482015260640161062b565b505050505050505050565b610c6f610d0a565b6001600160a01b038116610cd45760405162461bcd60e51b815260206004820152602660248201527f4f776e61626c653a206e6577206f776e657220697320746865207a65726f206160448201526564647265737360d01b606482015260840161062b565b610cdd81610d64565b50565b610ce8610d0a565b600180546001600160a01b0319166001600160a01b0392909216919091179055565b6000546001600160a01b031633146108c15760405162461bcd60e51b815260206004820181905260248201527f4f776e61626c653a2063616c6c6572206973206e6f7420746865206f776e6572604482015260640161062b565b600080546001600160a01b038381166001600160a01b0319831681178455604051919092169283917f8be0079c531659141344cd1fd0a4f28419497f9722a3daafe3b4186f6b6457e09190a35050565b80356001600160a01b0381168114610dcb57600080fd5b919050565b60008060408385031215610de357600080fd5b610dec83610db4565b9150610dfa60208401610db4565b90509250929050565b60008060408385031215610e1657600080fd5b610e1f83610db4565b946020939093013593505050565b600060208284031215610e3f57600080fd5b5035919050565b60008060408385031215610e5957600080fd5b50508035926020909101359150565b600060208284031215610e7a57600080fd5b61047082610db4565b634e487b7160e01b600052601160045260246000fd5b80820281158282048414176103d9576103d9610e83565b600082610ecd57634e487b7160e01b600052601260045260246000fd5b500490565b808201808211156103d9576103d9610e83565b818103818111156103d9576103d9610e83565b6001600160a01b03988916815296909716602087015293151560408601526060850192909252608084015260a083015260c082015260e0810191909152610100019056fea264697066735822122097c87ea8e854ea85c5cbbabd7bd2d385b7317e648d1457405026b1337ae7b4a464736f6c63430008140033",
    "linkReferences": {}
  },
  "methodIdentifiers": {
    "buyShares(address,uint256)": "6945b123",
    "getBuyPrice(address,uint256)": "4635256e",
    "getBuyPriceAfterFee(address,uint256)": "0f026f6d",
    "getPrice(uint256,uint256)": "5cf4ee91",
    "getSellPrice(address,uint256)": "9ae71781",
    "getSellPriceAfterFee(address,uint256)": "2267a89c",
    "owner()": "8da5cb5b",
    "protocolFeeDestination()": "4ce7957c",
    "protocolFeePercent()": "d6e6eb9f",
    "renounceOwnership()": "715018a6",
    "sellShares(address,uint256)": "b51d0534",
    "setFeeDestination(address)": "fbe53234",
    "setProtocolFeePercent(uint256)": "a4983421",
    "setSubjectFeePercent(uint256)": "5a8a764e",
    "sharesBalance(address,address)": "020235ff",
    "sharesSupply(address)": "f9931be0",
    "subjectFeePercent()": "24dc441d",
    "transferOwnership(address)": "f2fde38b"
  },
  "id": 20
}